{
    "_format": "hh-sol-artifact-1",
    "contractName": "NFT721",
    "sourceName": "contracts/NFT721.sol",
    "abi": [
        {
            "inputs": [],
            "stateMutability": "nonpayable",
            "type": "constructor"
        },
        {
            "anonymous": false,
            "inputs": [
                {
                    "indexed": true,
                    "internalType": "address",
                    "name": "owner",
                    "type": "address"
                },
                {
                    "indexed": true,
                    "internalType": "address",
                    "name": "approved",
                    "type": "address"
                },
                {
                    "indexed": true,
                    "internalType": "uint256",
                    "name": "tokenId",
                    "type": "uint256"
                }
            ],
            "name": "Approval",
            "type": "event"
        },
        {
            "anonymous": false,
            "inputs": [
                {
                    "indexed": true,
                    "internalType": "address",
                    "name": "owner",
                    "type": "address"
                },
                {
                    "indexed": true,
                    "internalType": "address",
                    "name": "operator",
                    "type": "address"
                },
                {
                    "indexed": false,
                    "internalType": "bool",
                    "name": "approved",
                    "type": "bool"
                }
            ],
            "name": "ApprovalForAll",
            "type": "event"
        },
        {
            "anonymous": false,
            "inputs": [
                {
                    "indexed": true,
                    "internalType": "address",
                    "name": "previousOwner",
                    "type": "address"
                },
                {
                    "indexed": true,
                    "internalType": "address",
                    "name": "newOwner",
                    "type": "address"
                }
            ],
            "name": "OwnershipTransferred",
            "type": "event"
        },
        {
            "anonymous": false,
            "inputs": [
                {
                    "indexed": true,
                    "internalType": "address",
                    "name": "from",
                    "type": "address"
                },
                {
                    "indexed": true,
                    "internalType": "address",
                    "name": "to",
                    "type": "address"
                },
                {
                    "indexed": true,
                    "internalType": "uint256",
                    "name": "tokenId",
                    "type": "uint256"
                }
            ],
            "name": "Transfer",
            "type": "event"
        },
        {
            "inputs": [
                {
                    "internalType": "address",
                    "name": "to",
                    "type": "address"
                },
                {
                    "internalType": "uint256",
                    "name": "tokenId",
                    "type": "uint256"
                }
            ],
            "name": "approve",
            "outputs": [],
            "stateMutability": "nonpayable",
            "type": "function"
        },
        {
            "inputs": [
                {
                    "internalType": "address",
                    "name": "owner",
                    "type": "address"
                }
            ],
            "name": "balanceOf",
            "outputs": [
                {
                    "internalType": "uint256",
                    "name": "",
                    "type": "uint256"
                }
            ],
            "stateMutability": "view",
            "type": "function"
        },
        {
            "inputs": [
                {
                    "internalType": "uint256",
                    "name": "tokenId",
                    "type": "uint256"
                }
            ],
            "name": "burn",
            "outputs": [],
            "stateMutability": "nonpayable",
            "type": "function"
        },
        {
            "inputs": [
                {
                    "internalType": "uint256",
                    "name": "tokenId",
                    "type": "uint256"
                }
            ],
            "name": "getApproved",
            "outputs": [
                {
                    "internalType": "address",
                    "name": "",
                    "type": "address"
                }
            ],
            "stateMutability": "view",
            "type": "function"
        },
        {
            "inputs": [
                {
                    "internalType": "address",
                    "name": "owner",
                    "type": "address"
                },
                {
                    "internalType": "address",
                    "name": "operator",
                    "type": "address"
                }
            ],
            "name": "isApprovedForAll",
            "outputs": [
                {
                    "internalType": "bool",
                    "name": "",
                    "type": "bool"
                }
            ],
            "stateMutability": "view",
            "type": "function"
        },
        {
            "inputs": [],
            "name": "name",
            "outputs": [
                {
                    "internalType": "string",
                    "name": "",
                    "type": "string"
                }
            ],
            "stateMutability": "view",
            "type": "function"
        },
        {
            "inputs": [],
            "name": "owner",
            "outputs": [
                {
                    "internalType": "address",
                    "name": "",
                    "type": "address"
                }
            ],
            "stateMutability": "view",
            "type": "function"
        },
        {
            "inputs": [
                {
                    "internalType": "uint256",
                    "name": "tokenId",
                    "type": "uint256"
                }
            ],
            "name": "ownerOf",
            "outputs": [
                {
                    "internalType": "address",
                    "name": "",
                    "type": "address"
                }
            ],
            "stateMutability": "view",
            "type": "function"
        },
        {
            "inputs": [],
            "name": "renounceOwnership",
            "outputs": [],
            "stateMutability": "nonpayable",
            "type": "function"
        },
        {
            "inputs": [
                {
                    "internalType": "string",
                    "name": "_uri",
                    "type": "string"
                }
            ],
            "name": "safeMint",
            "outputs": [],
            "stateMutability": "nonpayable",
            "type": "function"
        },
        {
            "inputs": [
                {
                    "internalType": "address",
                    "name": "from",
                    "type": "address"
                },
                {
                    "internalType": "address",
                    "name": "to",
                    "type": "address"
                },
                {
                    "internalType": "uint256",
                    "name": "tokenId",
                    "type": "uint256"
                }
            ],
            "name": "safeTransferFrom",
            "outputs": [],
            "stateMutability": "nonpayable",
            "type": "function"
        },
        {
            "inputs": [
                {
                    "internalType": "address",
                    "name": "from",
                    "type": "address"
                },
                {
                    "internalType": "address",
                    "name": "to",
                    "type": "address"
                },
                {
                    "internalType": "uint256",
                    "name": "tokenId",
                    "type": "uint256"
                },
                {
                    "internalType": "bytes",
                    "name": "data",
                    "type": "bytes"
                }
            ],
            "name": "safeTransferFrom",
            "outputs": [],
            "stateMutability": "nonpayable",
            "type": "function"
        },
        {
            "inputs": [
                {
                    "internalType": "address",
                    "name": "operator",
                    "type": "address"
                },
                {
                    "internalType": "bool",
                    "name": "approved",
                    "type": "bool"
                }
            ],
            "name": "setApprovalForAll",
            "outputs": [],
            "stateMutability": "nonpayable",
            "type": "function"
        },
        {
            "inputs": [
                {
                    "internalType": "bytes4",
                    "name": "interfaceId",
                    "type": "bytes4"
                }
            ],
            "name": "supportsInterface",
            "outputs": [
                {
                    "internalType": "bool",
                    "name": "",
                    "type": "bool"
                }
            ],
            "stateMutability": "view",
            "type": "function"
        },
        {
            "inputs": [],
            "name": "symbol",
            "outputs": [
                {
                    "internalType": "string",
                    "name": "",
                    "type": "string"
                }
            ],
            "stateMutability": "view",
            "type": "function"
        },
        {
            "inputs": [
                {
                    "internalType": "uint256",
                    "name": "tokenId",
                    "type": "uint256"
                }
            ],
            "name": "tokenURI",
            "outputs": [
                {
                    "internalType": "string",
                    "name": "",
                    "type": "string"
                }
            ],
            "stateMutability": "view",
            "type": "function"
        },
        {
            "inputs": [
                {
                    "internalType": "uint256",
                    "name": "",
                    "type": "uint256"
                }
            ],
            "name": "tokenUri",
            "outputs": [
                {
                    "internalType": "string",
                    "name": "",
                    "type": "string"
                }
            ],
            "stateMutability": "view",
            "type": "function"
        },
        {
            "inputs": [
                {
                    "internalType": "address",
                    "name": "from",
                    "type": "address"
                },
                {
                    "internalType": "address",
                    "name": "to",
                    "type": "address"
                },
                {
                    "internalType": "uint256",
                    "name": "tokenId",
                    "type": "uint256"
                }
            ],
            "name": "transferFrom",
            "outputs": [],
            "stateMutability": "nonpayable",
            "type": "function"
        },
        {
            "inputs": [
                {
                    "internalType": "address",
                    "name": "newOwner",
                    "type": "address"
                }
            ],
            "name": "transferOwnership",
            "outputs": [],
            "stateMutability": "nonpayable",
            "type": "function"
        },
        {
            "inputs": [
                {
                    "internalType": "uint256",
                    "name": "_tokenId",
                    "type": "uint256"
                }
            ],
            "name": "uri",
            "outputs": [
                {
                    "internalType": "string",
                    "name": "",
                    "type": "string"
                }
            ],
            "stateMutability": "view",
            "type": "function"
        }
    ],
    "bytecode": "0x60806040523480156200001157600080fd5b506040518060400160405280600681526020017f4e465437323100000000000000000000000000000000000000000000000000008152506040518060400160405280600381526020017f4e4654000000000000000000000000000000000000000000000000000000000081525081600090816200008f919062000412565b508060019081620000a1919062000412565b505050620000c4620000b8620000ca60201b60201c565b620000d260201b60201c565b620004f9565b600033905090565b6000600660009054906101000a900473ffffffffffffffffffffffffffffffffffffffff16905081600660006101000a81548173ffffffffffffffffffffffffffffffffffffffff021916908373ffffffffffffffffffffffffffffffffffffffff1602179055508173ffffffffffffffffffffffffffffffffffffffff168173ffffffffffffffffffffffffffffffffffffffff167f8be0079c531659141344cd1fd0a4f28419497f9722a3daafe3b4186f6b6457e060405160405180910390a35050565b600081519050919050565b7f4e487b7100000000000000000000000000000000000000000000000000000000600052604160045260246000fd5b7f4e487b7100000000000000000000000000000000000000000000000000000000600052602260045260246000fd5b600060028204905060018216806200021a57607f821691505b60208210810362000230576200022f620001d2565b5b50919050565b60008190508160005260206000209050919050565b60006020601f8301049050919050565b600082821b905092915050565b6000600883026200029a7fffffffffffffffffffffffffffffffffffffffffffffffffffffffffffffffff826200025b565b620002a686836200025b565b95508019841693508086168417925050509392505050565b6000819050919050565b6000819050919050565b6000620002f3620002ed620002e784620002be565b620002c8565b620002be565b9050919050565b6000819050919050565b6200030f83620002d2565b620003276200031e82620002fa565b84845462000268565b825550505050565b600090565b6200033e6200032f565b6200034b81848462000304565b505050565b5b8181101562000373576200036760008262000334565b60018101905062000351565b5050565b601f821115620003c2576200038c8162000236565b62000397846200024b565b81016020851015620003a7578190505b620003bf620003b6856200024b565b83018262000350565b50505b505050565b600082821c905092915050565b6000620003e760001984600802620003c7565b1980831691505092915050565b6000620004028383620003d4565b9150826002028217905092915050565b6200041d8262000198565b67ffffffffffffffff811115620004395762000438620001a3565b5b62000445825462000201565b6200045282828562000377565b600060209050601f8311600181146200048a576000841562000475578287015190505b620004818582620003f4565b865550620004f1565b601f1984166200049a8662000236565b60005b82811015620004c4578489015182556001820191506020850194506020810190506200049d565b86831015620004e45784890151620004e0601f891682620003d4565b8355505b6001600288020188555050505b505050505050565b612fde80620005096000396000f3fe608060405234801561001057600080fd5b506004361061012c5760003560e01c8063695850fb116100ad578063a22cb46511610071578063a22cb46514610341578063b88d4fde1461035d578063c87b56dd14610379578063e985e9c5146103a9578063f2fde38b146103d95761012c565b8063695850fb146102af57806370a08231146102cb578063715018a6146102fb5780638da5cb5b1461030557806395d89b41146103235761012c565b80631675f455116100f45780631675f455146101fb57806323b872dd1461022b57806342842e0e1461024757806342966c68146102635780636352211e1461027f5761012c565b806301ffc9a71461013157806306fdde0314610161578063081812fc1461017f578063095ea7b3146101af5780630e89341c146101cb575b600080fd5b61014b60048036038101906101469190611e5d565b6103f5565b6040516101589190611ea5565b60405180910390f35b6101696104d7565b6040516101769190611f50565b60405180910390f35b61019960048036038101906101949190611fa8565b610569565b6040516101a69190612016565b60405180910390f35b6101c960048036038101906101c4919061205d565b6105af565b005b6101e560048036038101906101e09190611fa8565b6106c6565b6040516101f29190611f50565b60405180910390f35b61021560048036038101906102109190611fa8565b610790565b6040516102229190611f50565b60405180910390f35b6102456004803603810190610240919061209d565b610830565b005b610261600480360381019061025c919061209d565b610890565b005b61027d60048036038101906102789190611fa8565b6108b0565b005b61029960048036038101906102949190611fa8565b61090c565b6040516102a69190612016565b60405180910390f35b6102c960048036038101906102c49190612225565b610992565b005b6102e560048036038101906102e0919061226e565b6109ca565b6040516102f291906122aa565b60405180910390f35b610303610a81565b005b61030d610a95565b60405161031a9190612016565b60405180910390f35b61032b610abf565b6040516103389190611f50565b60405180910390f35b61035b600480360381019061035691906122f1565b610b51565b005b610377600480360381019061037291906123d2565b610b67565b005b610393600480360381019061038e9190611fa8565b610bc9565b6040516103a09190611f50565b60405180910390f35b6103c360048036038101906103be9190612455565b610c31565b6040516103d09190611ea5565b60405180910390f35b6103f360048036038101906103ee919061226e565b610cc5565b005b60007f80ac58cd000000000000000000000000000000000000000000000000000000007bffffffffffffffffffffffffffffffffffffffffffffffffffffffff1916827bffffffffffffffffffffffffffffffffffffffffffffffffffffffff191614806104c057507f5b5e139f000000000000000000000000000000000000000000000000000000007bffffffffffffffffffffffffffffffffffffffffffffffffffffffff1916827bffffffffffffffffffffffffffffffffffffffffffffffffffffffff1916145b806104d057506104cf82610d48565b5b9050919050565b6060600080546104e6906124c4565b80601f0160208091040260200160405190810160405280929190818152602001828054610512906124c4565b801561055f5780601f106105345761010080835404028352916020019161055f565b820191906000526020600020905b81548152906001019060200180831161054257829003601f168201915b5050505050905090565b600061057482610db2565b6004600083815260200190815260200160002060009054906101000a900473ffffffffffffffffffffffffffffffffffffffff169050919050565b60006105ba8261090c565b90508073ffffffffffffffffffffffffffffffffffffffff168373ffffffffffffffffffffffffffffffffffffffff160361062a576040517f08c379a000000000000000000000000000000000000000000000000000000000815260040161062190612567565b60405180910390fd5b8073ffffffffffffffffffffffffffffffffffffffff16610649610dfd565b73ffffffffffffffffffffffffffffffffffffffff161480610678575061067781610672610dfd565b610c31565b5b6106b7576040517f08c379a00000000000000000000000000000000000000000000000000000000081526004016106ae906125f9565b60405180910390fd5b6106c18383610e05565b505050565b606060006008600084815260200190815260200160002080546106e8906124c4565b80601f0160208091040260200160405190810160405280929190818152602001828054610714906124c4565b80156107615780601f1061073657610100808354040283529160200191610761565b820191906000526020600020905b81548152906001019060200180831161074457829003601f168201915b50505050509050806040516020016107799190612655565b604051602081830303815290604052915050919050565b600860205280600052604060002060009150905080546107af906124c4565b80601f01602080910402602001604051908101604052809291908181526020018280546107db906124c4565b80156108285780601f106107fd57610100808354040283529160200191610828565b820191906000526020600020905b81548152906001019060200180831161080b57829003601f168201915b505050505081565b61084161083b610dfd565b82610ebe565b610880576040517f08c379a0000000000000000000000000000000000000000000000000000000008152600401610877906126de565b60405180910390fd5b61088b838383610f53565b505050565b6108ab83838360405180602001604052806000815250610b67565b505050565b6108c16108bb610dfd565b82610ebe565b610900576040517f08c379a00000000000000000000000000000000000000000000000000000000081526004016108f7906126de565b60405180910390fd5b6109098161124c565b50565b6000806109188361139a565b9050600073ffffffffffffffffffffffffffffffffffffffff168173ffffffffffffffffffffffffffffffffffffffff1603610989576040517f08c379a00000000000000000000000000000000000000000000000000000000081526004016109809061274a565b60405180910390fd5b80915050919050565b61099a6113d7565b60006109a66007611455565b90506109b26007611463565b6109bc3382611479565b6109c68183611497565b5050565b60008073ffffffffffffffffffffffffffffffffffffffff168273ffffffffffffffffffffffffffffffffffffffff1603610a3a576040517f08c379a0000000000000000000000000000000000000000000000000000000008152600401610a31906127dc565b60405180910390fd5b600360008373ffffffffffffffffffffffffffffffffffffffff1673ffffffffffffffffffffffffffffffffffffffff168152602001908152602001600020549050919050565b610a896113d7565b610a9360006114bc565b565b6000600660009054906101000a900473ffffffffffffffffffffffffffffffffffffffff16905090565b606060018054610ace906124c4565b80601f0160208091040260200160405190810160405280929190818152602001828054610afa906124c4565b8015610b475780601f10610b1c57610100808354040283529160200191610b47565b820191906000526020600020905b815481529060010190602001808311610b2a57829003601f168201915b5050505050905090565b610b63610b5c610dfd565b8383611582565b5050565b610b78610b72610dfd565b83610ebe565b610bb7576040517f08c379a0000000000000000000000000000000000000000000000000000000008152600401610bae906126de565b60405180910390fd5b610bc3848484846116ee565b50505050565b6060610bd482610db2565b6000610bde61174a565b90506000815111610bfe5760405180602001604052806000815250610c29565b80610c0884611761565b604051602001610c199291906127fc565b6040516020818303038152906040525b915050919050565b6000600560008473ffffffffffffffffffffffffffffffffffffffff1673ffffffffffffffffffffffffffffffffffffffff16815260200190815260200160002060008373ffffffffffffffffffffffffffffffffffffffff1673ffffffffffffffffffffffffffffffffffffffff16815260200190815260200160002060009054906101000a900460ff16905092915050565b610ccd6113d7565b600073ffffffffffffffffffffffffffffffffffffffff168173ffffffffffffffffffffffffffffffffffffffff1603610d3c576040517f08c379a0000000000000000000000000000000000000000000000000000000008152600401610d3390612892565b60405180910390fd5b610d45816114bc565b50565b60007f01ffc9a7000000000000000000000000000000000000000000000000000000007bffffffffffffffffffffffffffffffffffffffffffffffffffffffff1916827bffffffffffffffffffffffffffffffffffffffffffffffffffffffff1916149050919050565b610dbb8161182f565b610dfa576040517f08c379a0000000000000000000000000000000000000000000000000000000008152600401610df19061274a565b60405180910390fd5b50565b600033905090565b816004600083815260200190815260200160002060006101000a81548173ffffffffffffffffffffffffffffffffffffffff021916908373ffffffffffffffffffffffffffffffffffffffff160217905550808273ffffffffffffffffffffffffffffffffffffffff16610e788361090c565b73ffffffffffffffffffffffffffffffffffffffff167f8c5be1e5ebec7d5bd14f71427d1e84f3dd0314c0f7b2291e5b200ac8c7c3b92560405160405180910390a45050565b600080610eca8361090c565b90508073ffffffffffffffffffffffffffffffffffffffff168473ffffffffffffffffffffffffffffffffffffffff161480610f0c5750610f0b8185610c31565b5b80610f4a57508373ffffffffffffffffffffffffffffffffffffffff16610f3284610569565b73ffffffffffffffffffffffffffffffffffffffff16145b91505092915050565b8273ffffffffffffffffffffffffffffffffffffffff16610f738261090c565b73ffffffffffffffffffffffffffffffffffffffff1614610fc9576040517f08c379a0000000000000000000000000000000000000000000000000000000008152600401610fc090612924565b60405180910390fd5b600073ffffffffffffffffffffffffffffffffffffffff168273ffffffffffffffffffffffffffffffffffffffff1603611038576040517f08c379a000000000000000000000000000000000000000000000000000000000815260040161102f906129b6565b60405180910390fd5b6110458383836001611870565b8273ffffffffffffffffffffffffffffffffffffffff166110658261090c565b73ffffffffffffffffffffffffffffffffffffffff16146110bb576040517f08c379a00000000000000000000000000000000000000000000000000000000081526004016110b290612924565b60405180910390fd5b6004600082815260200190815260200160002060006101000a81549073ffffffffffffffffffffffffffffffffffffffff02191690556001600360008573ffffffffffffffffffffffffffffffffffffffff1673ffffffffffffffffffffffffffffffffffffffff168152602001908152602001600020600082825403925050819055506001600360008473ffffffffffffffffffffffffffffffffffffffff1673ffffffffffffffffffffffffffffffffffffffff16815260200190815260200160002060008282540192505081905550816002600083815260200190815260200160002060006101000a81548173ffffffffffffffffffffffffffffffffffffffff021916908373ffffffffffffffffffffffffffffffffffffffff160217905550808273ffffffffffffffffffffffffffffffffffffffff168473ffffffffffffffffffffffffffffffffffffffff167fddf252ad1be2c89b69c2b068fc378daa952ba7f163c4a11628f55a4df523b3ef60405160405180910390a46112478383836001611876565b505050565b60006112578261090c565b9050611267816000846001611870565b6112708261090c565b90506004600083815260200190815260200160002060006101000a81549073ffffffffffffffffffffffffffffffffffffffff02191690556001600360008373ffffffffffffffffffffffffffffffffffffffff1673ffffffffffffffffffffffffffffffffffffffff168152602001908152602001600020600082825403925050819055506002600083815260200190815260200160002060006101000a81549073ffffffffffffffffffffffffffffffffffffffff021916905581600073ffffffffffffffffffffffffffffffffffffffff168273ffffffffffffffffffffffffffffffffffffffff167fddf252ad1be2c89b69c2b068fc378daa952ba7f163c4a11628f55a4df523b3ef60405160405180910390a4611396816000846001611876565b5050565b60006002600083815260200190815260200160002060009054906101000a900473ffffffffffffffffffffffffffffffffffffffff169050919050565b6113df610dfd565b73ffffffffffffffffffffffffffffffffffffffff166113fd610a95565b73ffffffffffffffffffffffffffffffffffffffff1614611453576040517f08c379a000000000000000000000000000000000000000000000000000000000815260040161144a90612a22565b60405180910390fd5b565b600081600001549050919050565b6001816000016000828254019250508190555050565b61149382826040518060200160405280600081525061187c565b5050565b806008600084815260200190815260200160002090816114b79190612bee565b505050565b6000600660009054906101000a900473ffffffffffffffffffffffffffffffffffffffff16905081600660006101000a81548173ffffffffffffffffffffffffffffffffffffffff021916908373ffffffffffffffffffffffffffffffffffffffff1602179055508173ffffffffffffffffffffffffffffffffffffffff168173ffffffffffffffffffffffffffffffffffffffff167f8be0079c531659141344cd1fd0a4f28419497f9722a3daafe3b4186f6b6457e060405160405180910390a35050565b8173ffffffffffffffffffffffffffffffffffffffff168373ffffffffffffffffffffffffffffffffffffffff16036115f0576040517f08c379a00000000000000000000000000000000000000000000000000000000081526004016115e790612d0c565b60405180910390fd5b80600560008573ffffffffffffffffffffffffffffffffffffffff1673ffffffffffffffffffffffffffffffffffffffff16815260200190815260200160002060008473ffffffffffffffffffffffffffffffffffffffff1673ffffffffffffffffffffffffffffffffffffffff16815260200190815260200160002060006101000a81548160ff0219169083151502179055508173ffffffffffffffffffffffffffffffffffffffff168373ffffffffffffffffffffffffffffffffffffffff167f17307eab39ab6107e8899845ad3d59bd9653f200f220920489ca2b5937696c31836040516116e19190611ea5565b60405180910390a3505050565b6116f9848484610f53565b611705848484846118d7565b611744576040517f08c379a000000000000000000000000000000000000000000000000000000000815260040161173b90612d9e565b60405180910390fd5b50505050565b606060405180602001604052806000815250905090565b60606000600161177084611a5e565b01905060008167ffffffffffffffff81111561178f5761178e6120fa565b5b6040519080825280601f01601f1916602001820160405280156117c15781602001600182028036833780820191505090505b509050600082602001820190505b600115611824578080600190039150507f3031323334353637383961626364656600000000000000000000000000000000600a86061a8153600a858161181857611817612dbe565b5b049450600085036117cf575b819350505050919050565b60008073ffffffffffffffffffffffffffffffffffffffff166118518361139a565b73ffffffffffffffffffffffffffffffffffffffff1614159050919050565b50505050565b50505050565b6118868383611bb1565b61189360008484846118d7565b6118d2576040517f08c379a00000000000000000000000000000000000000000000000000000000081526004016118c990612d9e565b60405180910390fd5b505050565b60006118f88473ffffffffffffffffffffffffffffffffffffffff16611dce565b15611a51578373ffffffffffffffffffffffffffffffffffffffff1663150b7a02611921610dfd565b8786866040518563ffffffff1660e01b81526004016119439493929190612e42565b6020604051808303816000875af192505050801561197f57506040513d601f19601f8201168201806040525081019061197c9190612ea3565b60015b611a01573d80600081146119af576040519150601f19603f3d011682016040523d82523d6000602084013e6119b4565b606091505b5060008151036119f9576040517f08c379a00000000000000000000000000000000000000000000000000000000081526004016119f090612d9e565b60405180910390fd5b805181602001fd5b63150b7a0260e01b7bffffffffffffffffffffffffffffffffffffffffffffffffffffffff1916817bffffffffffffffffffffffffffffffffffffffffffffffffffffffff191614915050611a56565b600190505b949350505050565b600080600090507a184f03e93ff9f4daa797ed6e38ed64bf6a1f0100000000000000008310611abc577a184f03e93ff9f4daa797ed6e38ed64bf6a1f0100000000000000008381611ab257611ab1612dbe565b5b0492506040810190505b6d04ee2d6d415b85acef81000000008310611af9576d04ee2d6d415b85acef81000000008381611aef57611aee612dbe565b5b0492506020810190505b662386f26fc100008310611b2857662386f26fc100008381611b1e57611b1d612dbe565b5b0492506010810190505b6305f5e1008310611b51576305f5e1008381611b4757611b46612dbe565b5b0492506008810190505b6127108310611b76576127108381611b6c57611b6b612dbe565b5b0492506004810190505b60648310611b995760648381611b8f57611b8e612dbe565b5b0492506002810190505b600a8310611ba8576001810190505b80915050919050565b600073ffffffffffffffffffffffffffffffffffffffff168273ffffffffffffffffffffffffffffffffffffffff1603611c20576040517f08c379a0000000000000000000000000000000000000000000000000000000008152600401611c1790612f1c565b60405180910390fd5b611c298161182f565b15611c69576040517f08c379a0000000000000000000000000000000000000000000000000000000008152600401611c6090612f88565b60405180910390fd5b611c77600083836001611870565b611c808161182f565b15611cc0576040517f08c379a0000000000000000000000000000000000000000000000000000000008152600401611cb790612f88565b60405180910390fd5b6001600360008473ffffffffffffffffffffffffffffffffffffffff1673ffffffffffffffffffffffffffffffffffffffff16815260200190815260200160002060008282540192505081905550816002600083815260200190815260200160002060006101000a81548173ffffffffffffffffffffffffffffffffffffffff021916908373ffffffffffffffffffffffffffffffffffffffff160217905550808273ffffffffffffffffffffffffffffffffffffffff16600073ffffffffffffffffffffffffffffffffffffffff167fddf252ad1be2c89b69c2b068fc378daa952ba7f163c4a11628f55a4df523b3ef60405160405180910390a4611dca600083836001611876565b5050565b6000808273ffffffffffffffffffffffffffffffffffffffff163b119050919050565b6000604051905090565b600080fd5b600080fd5b60007fffffffff0000000000000000000000000000000000000000000000000000000082169050919050565b611e3a81611e05565b8114611e4557600080fd5b50565b600081359050611e5781611e31565b92915050565b600060208284031215611e7357611e72611dfb565b5b6000611e8184828501611e48565b91505092915050565b60008115159050919050565b611e9f81611e8a565b82525050565b6000602082019050611eba6000830184611e96565b92915050565b600081519050919050565b600082825260208201905092915050565b60005b83811015611efa578082015181840152602081019050611edf565b60008484015250505050565b6000601f19601f8301169050919050565b6000611f2282611ec0565b611f2c8185611ecb565b9350611f3c818560208601611edc565b611f4581611f06565b840191505092915050565b60006020820190508181036000830152611f6a8184611f17565b905092915050565b6000819050919050565b611f8581611f72565b8114611f9057600080fd5b50565b600081359050611fa281611f7c565b92915050565b600060208284031215611fbe57611fbd611dfb565b5b6000611fcc84828501611f93565b91505092915050565b600073ffffffffffffffffffffffffffffffffffffffff82169050919050565b600061200082611fd5565b9050919050565b61201081611ff5565b82525050565b600060208201905061202b6000830184612007565b92915050565b61203a81611ff5565b811461204557600080fd5b50565b60008135905061205781612031565b92915050565b6000806040838503121561207457612073611dfb565b5b600061208285828601612048565b925050602061209385828601611f93565b9150509250929050565b6000806000606084860312156120b6576120b5611dfb565b5b60006120c486828701612048565b93505060206120d586828701612048565b92505060406120e686828701611f93565b9150509250925092565b600080fd5b600080fd5b7f4e487b7100000000000000000000000000000000000000000000000000000000600052604160045260246000fd5b61213282611f06565b810181811067ffffffffffffffff82111715612151576121506120fa565b5b80604052505050565b6000612164611df1565b90506121708282612129565b919050565b600067ffffffffffffffff8211156121905761218f6120fa565b5b61219982611f06565b9050602081019050919050565b82818337600083830152505050565b60006121c86121c384612175565b61215a565b9050828152602081018484840111156121e4576121e36120f5565b5b6121ef8482856121a6565b509392505050565b600082601f83011261220c5761220b6120f0565b5b813561221c8482602086016121b5565b91505092915050565b60006020828403121561223b5761223a611dfb565b5b600082013567ffffffffffffffff81111561225957612258611e00565b5b612265848285016121f7565b91505092915050565b60006020828403121561228457612283611dfb565b5b600061229284828501612048565b91505092915050565b6122a481611f72565b82525050565b60006020820190506122bf600083018461229b565b92915050565b6122ce81611e8a565b81146122d957600080fd5b50565b6000813590506122eb816122c5565b92915050565b6000806040838503121561230857612307611dfb565b5b600061231685828601612048565b9250506020612327858286016122dc565b9150509250929050565b600067ffffffffffffffff82111561234c5761234b6120fa565b5b61235582611f06565b9050602081019050919050565b600061237561237084612331565b61215a565b905082815260208101848484011115612391576123906120f5565b5b61239c8482856121a6565b509392505050565b600082601f8301126123b9576123b86120f0565b5b81356123c9848260208601612362565b91505092915050565b600080600080608085870312156123ec576123eb611dfb565b5b60006123fa87828801612048565b945050602061240b87828801612048565b935050604061241c87828801611f93565b925050606085013567ffffffffffffffff81111561243d5761243c611e00565b5b612449878288016123a4565b91505092959194509250565b6000806040838503121561246c5761246b611dfb565b5b600061247a85828601612048565b925050602061248b85828601612048565b9150509250929050565b7f4e487b7100000000000000000000000000000000000000000000000000000000600052602260045260246000fd5b600060028204905060018216806124dc57607f821691505b6020821081036124ef576124ee612495565b5b50919050565b7f4552433732313a20617070726f76616c20746f2063757272656e74206f776e6560008201527f7200000000000000000000000000000000000000000000000000000000000000602082015250565b6000612551602183611ecb565b915061255c826124f5565b604082019050919050565b6000602082019050818103600083015261258081612544565b9050919050565b7f4552433732313a20617070726f76652063616c6c6572206973206e6f7420746f60008201527f6b656e206f776e6572206f7220617070726f76656420666f7220616c6c000000602082015250565b60006125e3603d83611ecb565b91506125ee82612587565b604082019050919050565b60006020820190508181036000830152612612816125d6565b9050919050565b600081905092915050565b600061262f82611ec0565b6126398185612619565b9350612649818560208601611edc565b80840191505092915050565b60006126618284612624565b915081905092915050565b7f4552433732313a2063616c6c6572206973206e6f7420746f6b656e206f776e6560008201527f72206f7220617070726f76656400000000000000000000000000000000000000602082015250565b60006126c8602d83611ecb565b91506126d38261266c565b604082019050919050565b600060208201905081810360008301526126f7816126bb565b9050919050565b7f4552433732313a20696e76616c696420746f6b656e2049440000000000000000600082015250565b6000612734601883611ecb565b915061273f826126fe565b602082019050919050565b6000602082019050818103600083015261276381612727565b9050919050565b7f4552433732313a2061646472657373207a65726f206973206e6f74206120766160008201527f6c6964206f776e65720000000000000000000000000000000000000000000000602082015250565b60006127c6602983611ecb565b91506127d18261276a565b604082019050919050565b600060208201905081810360008301526127f5816127b9565b9050919050565b60006128088285612624565b91506128148284612624565b91508190509392505050565b7f4f776e61626c653a206e6577206f776e657220697320746865207a65726f206160008201527f6464726573730000000000000000000000000000000000000000000000000000602082015250565b600061287c602683611ecb565b915061288782612820565b604082019050919050565b600060208201905081810360008301526128ab8161286f565b9050919050565b7f4552433732313a207472616e736665722066726f6d20696e636f72726563742060008201527f6f776e6572000000000000000000000000000000000000000000000000000000602082015250565b600061290e602583611ecb565b9150612919826128b2565b604082019050919050565b6000602082019050818103600083015261293d81612901565b9050919050565b7f4552433732313a207472616e7366657220746f20746865207a65726f2061646460008201527f7265737300000000000000000000000000000000000000000000000000000000602082015250565b60006129a0602483611ecb565b91506129ab82612944565b604082019050919050565b600060208201905081810360008301526129cf81612993565b9050919050565b7f4f776e61626c653a2063616c6c6572206973206e6f7420746865206f776e6572600082015250565b6000612a0c602083611ecb565b9150612a17826129d6565b602082019050919050565b60006020820190508181036000830152612a3b816129ff565b9050919050565b60008190508160005260206000209050919050565b60006020601f8301049050919050565b600082821b905092915050565b600060088302612aa47fffffffffffffffffffffffffffffffffffffffffffffffffffffffffffffffff82612a67565b612aae8683612a67565b95508019841693508086168417925050509392505050565b6000819050919050565b6000612aeb612ae6612ae184611f72565b612ac6565b611f72565b9050919050565b6000819050919050565b612b0583612ad0565b612b19612b1182612af2565b848454612a74565b825550505050565b600090565b612b2e612b21565b612b39818484612afc565b505050565b5b81811015612b5d57612b52600082612b26565b600181019050612b3f565b5050565b601f821115612ba257612b7381612a42565b612b7c84612a57565b81016020851015612b8b578190505b612b9f612b9785612a57565b830182612b3e565b50505b505050565b600082821c905092915050565b6000612bc560001984600802612ba7565b1980831691505092915050565b6000612bde8383612bb4565b9150826002028217905092915050565b612bf782611ec0565b67ffffffffffffffff811115612c1057612c0f6120fa565b5b612c1a82546124c4565b612c25828285612b61565b600060209050601f831160018114612c585760008415612c46578287015190505b612c508582612bd2565b865550612cb8565b601f198416612c6686612a42565b60005b82811015612c8e57848901518255600182019150602085019450602081019050612c69565b86831015612cab5784890151612ca7601f891682612bb4565b8355505b6001600288020188555050505b505050505050565b7f4552433732313a20617070726f766520746f2063616c6c657200000000000000600082015250565b6000612cf6601983611ecb565b9150612d0182612cc0565b602082019050919050565b60006020820190508181036000830152612d2581612ce9565b9050919050565b7f4552433732313a207472616e7366657220746f206e6f6e20455243373231526560008201527f63656976657220696d706c656d656e7465720000000000000000000000000000602082015250565b6000612d88603283611ecb565b9150612d9382612d2c565b604082019050919050565b60006020820190508181036000830152612db781612d7b565b9050919050565b7f4e487b7100000000000000000000000000000000000000000000000000000000600052601260045260246000fd5b600081519050919050565b600082825260208201905092915050565b6000612e1482612ded565b612e1e8185612df8565b9350612e2e818560208601611edc565b612e3781611f06565b840191505092915050565b6000608082019050612e576000830187612007565b612e646020830186612007565b612e71604083018561229b565b8181036060830152612e838184612e09565b905095945050505050565b600081519050612e9d81611e31565b92915050565b600060208284031215612eb957612eb8611dfb565b5b6000612ec784828501612e8e565b91505092915050565b7f4552433732313a206d696e7420746f20746865207a65726f2061646472657373600082015250565b6000612f06602083611ecb565b9150612f1182612ed0565b602082019050919050565b60006020820190508181036000830152612f3581612ef9565b9050919050565b7f4552433732313a20746f6b656e20616c7265616479206d696e74656400000000600082015250565b6000612f72601c83611ecb565b9150612f7d82612f3c565b602082019050919050565b60006020820190508181036000830152612fa181612f65565b905091905056fea26469706673582212207c244ab72ef12ab9a7d52dc26773a9d6747981647b50b817a387f6edd69224a664736f6c63430008130033",
    "linkReferences": {},
    "deployedLinkReferences": {}
}